:1000000029C000003AC0000038C0000036C000001F
:1000100034C0000032C0000030C000002EC000001C
:100020002CC000002AC0000028C0000026C000002C
:1000300024C0000022C0000020C000001EC000003C
:100040001CC000001AC0000018C0000016C000004C
:1000500014C0000011241FBECFE5D8E0DEBFCDBF25
:1000600010E0A0E6B0E0E2EAF1E002C005900D92F7
:10007000A036B107D9F702D092C0C2CFCF93DF9399
:10008000CDB7DEB728970FB6F894DEBF0FBECDBF51
:1000900038D040D019821A821B821C8289819A81B1
:1000A000AB81BC818F3F9F4FA105B10568F4000073
:1000B00089819A81AB81BC810196A11DB11D898383
:1000C0009A83AB83BC83EACF2ED01D821E821F820F
:1000D00018868D819E81AF81B8858F3F9F4FA10586
:1000E000B10568F400008D819E81AF81B8850196CD
:1000F000A11DB11D8D839E83AF83B887EACF01D048
:10010000C9CFCF93DF93CDB7DEB716D00000DF9114
:10011000CF910895CF93DF93CDB7DEB71ED0000007
:10012000DF91CF910895CF93DF93CDB7DEB726D07F
:100130000000DF91CF910895CF93DF93CDB7DEB765
:1001400082E390E0FC01208182E390E02160FC01E9
:1001500020830000DF91CF910895CF93DF93CDB737
:10016000DEB781E390E0FC01208181E390E0216033
:10017000FC0120830000DF91CF910895CF93DF939E
:10018000CDB7DEB782E390E0FC01208182E390E00E
:100190002E7FFC0120830000DF91CF910895F89419
:0201A000FFCF8F
:00000001FF
