:1000000029C000002FC000002DC000002BC0000040
:1000100029C0000027C0000025C0000023C0000048
:1000200021C000001FC000001DC000001BC0000058
:1000300019C0000017C0000015C0000013C0000068
:1000400011C000000FC000000DC000000BC0000078
:1000500009C0000011241FBECFE5D8E0DEBFCDBF30
:10006000A2D0B9C1CDCFCF93DF9300D0CDB7DEB74B
:100070009A8389838AE390E02FEFFC0120838BE34E
:1000800090E0FC01108200000F900F90DF91CF9163
:100090000895CF93DF93CDB7DEB760970FB6F8948E
:1000A000DEBF0FBECDBF988B8F8780E090E0AAEFB8
:1000B000B3E489839A83AB83BC8320E030E04AE7D2
:1000C00053E469817A818B819C81FAD0DC01CB0178
:1000D0008D839E83AF83B88720E030E040E85FE304
:1000E0006D817E818F8198856AD088232CF481E090
:1000F00090E09A8789873AC020E03FEF4FE757E4C6
:100100006D817E818F819885D7D0181634F520E0D7
:1001100030E040E251E469817A818B819C81D0D0CA
:10012000DC01CB01BC01CD014ED0DC01CB019A87B3
:10013000898789859A85892B19F189E190E09C87C7
:100140008B878B859C850197F1F79C878B878985A9
:100150009A8501979A878987ECCF6D817E818F81FF
:10016000988531D0DC01CB019A87898789859A856A
:100170009E878D878D859E850197F1F79E878D8758
:100180008BE390E0FC0120818BE390E02095FC0163
:100190002083000060960FB6F894DEBF0FBECDBF7F
:1001A000DF91CF910895CF93DF931F92CDB7DEB744
:1001B000CE01019658DFCE0101966BDFFCCF2FD028
:1001C00008F481E0089557D088F09F5790F0B92F38
:1001D0009927B751A0F0D1F0660F771F881F991F9C
:1001E0001AF0BA95C9F712C0B13081F05ED0B1E013
:1001F00008955BC0672F782F8827B85F39F0B93F23
:10020000CCF3869577956795B395D9F73EF490959D
:100210008095709561957F4F8F4F9F4F0895990FEF
:100220000008550FAA0BE0E8FEEF16161706E807C0
:10023000F907C0F012161306E407F50798F0621BE1
:10024000730B840B950B39F40A2661F0232B242BB6
:10025000252B21F408950A2609F4A140A6958FEFD5
:10026000811D811D089557FD9058440F551F59F069
:100270005F3F71F04795880F97FB991F61F09F3F93
:1002800079F087950895121613061406551FF2CFBC
:100290004695F1DF08C0161617061806991FF1CF0C
:1002A00086957105610508940895E894BB27662733
:1002B0007727CB0197F90895B2DF08F48FEF0895FF
:1002C0000BD078C069D028F06ED018F0952309F0D3
:1002D0005AC05FC01124EACFC6DFA0F3959FD1F3C7
:1002E000950F50E0551F629FF001729FBB27F00DE4
:1002F000B11D639FAA27F00DB11DAA1F649F662739
:10030000B00DA11D661F829F2227B00DA11D621F87
:10031000739FB00DA11D621F839FA00D611D221F41
:10032000749F3327A00D611D231F849F600D211D25
:10033000822F762F6A2F11249F5750408AF0E1F0C8
:1003400088234AF0EE0FFF1FBB1F661F771F881F11
:1003500091505040A9F79E3F510570F014C0A6CFB0
:100360005F3FECF3983EDCF3869577956795B795FC
:10037000F795E7959F5FC1F7FE2B880F911D969526
:10038000879597F9089597F99F6780E870E060E096
:1003900008959FEF80EC089500240A94161617061E
:1003A00018060906089500240A9412161306140666
:1003B00005060895092E0394000C11F4882352F0C9
:1003C000BB0F40F4BF2B11F460FF04C06F5F7F4F81
:0A03D0008F4F9F4F0895F894FFCF60
:00000001FF
