:1000000029C000003AC0000038C0000036C000001F
:1000100034C0000032C0000030C000002EC000001C
:100020002CC000002AC0000028C0000026C000002C
:1000300024C0000022C0000020C000001EC000003C
:100040001CC000001AC0000018C0000016C000004C
:1000500014C0000011241FBECFE5D8E0DEBFCDBF25
:1000600010E0A0E6B0E0E6ECF1E002C005900D92F1
:10007000A036B107D9F70BD0A4C0C2CFCF93DF937E
:10008000CDB7DEB783E090E0DF91CF910895CF93B5
:10009000DF93CDB7DEB72A970FB6F894DEBF0FBE59
:1000A000CDBF41D049D0EADF9A87898789859A8573
:1000B000092E000CAA0BBB0B89839A83AB83BC83EC
:1000C00089819A81AB81BC818F3F9F4FA105B1058A
:1000D00068F4000089819A81AB81BC810196A11DE1
:1000E000B11D89839A83AB83BC83EACF2ED01D8256
:1000F0001E821F8218868D819E81AF81B8858F3FB9
:100100009F4FA105B10568F400008D819E81AF81EC
:10011000B8850196A11DB11D8D839E83AF83B887DD
:10012000EACF01D0C3CFCF93DF93CDB7DEB716D0E0
:100130000000DF91CF910895CF93DF93CDB7DEB765
:100140001ED00000DF91CF910895CF93DF93CDB7FC
:10015000DEB726D00000DF91CF910895CF93DF93D3
:10016000CDB7DEB782E390E0FC01208182E390E02E
:100170002160FC0120830000DF91CF910895CF938F
:10018000DF93CDB7DEB781E390E0FC01208181E30E
:1001900090E02160FC0120830000DF91CF91089561
:1001A000CF93DF93CDB7DEB782E390E0FC012081EF
:1001B00082E390E02E7FFC0120830000DF91CF914D
:0601C0000895F894FFCF42
:00000001FF
